{
  "contractName": "Lottery",
  "abi": [
    {
      "inputs": [],
      "stateMutability": "nonpayable",
      "type": "constructor"
    },
    {
      "inputs": [
        {
          "internalType": "uint256",
          "name": "",
          "type": "uint256"
        }
      ],
      "name": "players",
      "outputs": [
        {
          "internalType": "address payable",
          "name": "",
          "type": "address"
        }
      ],
      "stateMutability": "view",
      "type": "function",
      "constant": true
    },
    {
      "inputs": [],
      "name": "winner",
      "outputs": [
        {
          "internalType": "address payable",
          "name": "",
          "type": "address"
        }
      ],
      "stateMutability": "view",
      "type": "function",
      "constant": true
    },
    {
      "stateMutability": "payable",
      "type": "receive",
      "payable": true
    },
    {
      "inputs": [],
      "name": "getBalance",
      "outputs": [
        {
          "internalType": "uint256",
          "name": "",
          "type": "uint256"
        }
      ],
      "stateMutability": "view",
      "type": "function",
      "constant": true
    },
    {
      "inputs": [],
      "name": "pickWinner",
      "outputs": [],
      "stateMutability": "nonpayable",
      "type": "function"
    },
    {
      "inputs": [],
      "name": "allPlayers",
      "outputs": [
        {
          "internalType": "address payable[]",
          "name": "",
          "type": "address[]"
        }
      ],
      "stateMutability": "view",
      "type": "function",
      "constant": true
    }
  ],
  "bytecode": "0x608060405234801561001057600080fd5b5033600160006101000a81548173ffffffffffffffffffffffffffffffffffffffff021916908373ffffffffffffffffffffffffffffffffffffffff160217905550610b2a806100616000396000f3fe60806040526004361061004e5760003560e01c806312065fe0146101075780635d495aea14610132578063b0ec809414610149578063dfbf53ae14610174578063f71d96cb1461019f57610102565b3661010257670de0b6b3a7640000341461009d576040517f08c379a000000000000000000000000000000000000000000000000000000000815260040161009490610972565b60405180910390fd5b6000339080600181540180825580915050600190039060005260206000200160009091909190916101000a81548173ffffffffffffffffffffffffffffffffffffffff021916908373ffffffffffffffffffffffffffffffffffffffff160217905550005b600080fd5b34801561011357600080fd5b5061011c6101dc565b60405161012991906109d2565b60405180910390f35b34801561013e57600080fd5b50610147610274565b005b34801561015557600080fd5b5061015e61050c565b60405161016b9190610930565b60405180910390f35b34801561018057600080fd5b5061018961059a565b6040516101969190610915565b60405180910390f35b3480156101ab57600080fd5b506101c660048036038101906101c191906106f5565b6105c0565b6040516101d39190610915565b60405180910390f35b60003373ffffffffffffffffffffffffffffffffffffffff16600160009054906101000a900473ffffffffffffffffffffffffffffffffffffffff1673ffffffffffffffffffffffffffffffffffffffff161461026e576040517f08c379a0000000000000000000000000000000000000000000000000000000008152600401610265906109b2565b60405180910390fd5b47905090565b600160009054906101000a900473ffffffffffffffffffffffffffffffffffffffff1673ffffffffffffffffffffffffffffffffffffffff163373ffffffffffffffffffffffffffffffffffffffff1614610304576040517f08c379a00000000000000000000000000000000000000000000000000000000081526004016102fb90610952565b60405180910390fd5b6003600080549050101561034d576040517f08c379a000000000000000000000000000000000000000000000000000000000815260040161034490610992565b60405180910390fd5b60006103576105ff565b9050600080805490508261036b9190610a7d565b9050600081815481106103a7577f4e487b7100000000000000000000000000000000000000000000000000000000600052603260045260246000fd5b9060005260206000200160009054906101000a900473ffffffffffffffffffffffffffffffffffffffff16600260006101000a81548173ffffffffffffffffffffffffffffffffffffffff021916908373ffffffffffffffffffffffffffffffffffffffff160217905550600260009054906101000a900473ffffffffffffffffffffffffffffffffffffffff1673ffffffffffffffffffffffffffffffffffffffff166108fc6104566101dc565b9081150290604051600060405180830381858888f19350505050158015610481573d6000803e3d6000fd5b50600067ffffffffffffffff8111156104c3577f4e487b7100000000000000000000000000000000000000000000000000000000600052604160045260246000fd5b6040519080825280602002602001820160405280156104f15781602001602082028036833780820191505090505b5060009080519060200190610507929190610639565b505050565b6060600080548060200260200160405190810160405280929190818152602001828054801561059057602002820191906000526020600020905b8160009054906101000a900473ffffffffffffffffffffffffffffffffffffffff1673ffffffffffffffffffffffffffffffffffffffff1681526020019060010190808311610546575b5050505050905090565b600260009054906101000a900473ffffffffffffffffffffffffffffffffffffffff1681565b600081815481106105d057600080fd5b906000526020600020016000915054906101000a900473ffffffffffffffffffffffffffffffffffffffff1681565b6000444260008054905060405160200161061b939291906108d8565b6040516020818303038152906040528051906020012060001c905090565b8280548282559060005260206000209081019282156106b2579160200282015b828111156106b15782518260006101000a81548173ffffffffffffffffffffffffffffffffffffffff021916908373ffffffffffffffffffffffffffffffffffffffff16021790555091602001919060010190610659565b5b5090506106bf91906106c3565b5090565b5b808211156106dc5760008160009055506001016106c4565b5090565b6000813590506106ef81610add565b92915050565b60006020828403121561070757600080fd5b6000610715848285016106e0565b91505092915050565b600061072a8383610736565b60208301905092915050565b61073f81610a37565b82525050565b61074e81610a37565b82525050565b600061075f826109fd565b6107698185610a15565b9350610774836109ed565b8060005b838110156107a557815161078c888261071e565b975061079783610a08565b925050600181019050610778565b5085935050505092915050565b60006107bf601983610a26565b91507f20596f7520617265206e6f7420746865206d616e6167657220000000000000006000830152602082019050919050565b60006107ff601983610a26565b91507f20506c65617365207061792031206574686572206f6e6c7920000000000000006000830152602082019050919050565b600061083f601983610a26565b91507f20506c617965727320617265206c657373207468616e203320000000000000006000830152602082019050919050565b600061087f601783610a26565b91507f596f7520617265206e6f7420746865204d616e616765720000000000000000006000830152602082019050919050565b6108bb81610a69565b82525050565b6108d26108cd82610a69565b610a73565b82525050565b60006108e482866108c1565b6020820191506108f482856108c1565b60208201915061090482846108c1565b602082019150819050949350505050565b600060208201905061092a6000830184610745565b92915050565b6000602082019050818103600083015261094a8184610754565b905092915050565b6000602082019050818103600083015261096b816107b2565b9050919050565b6000602082019050818103600083015261098b816107f2565b9050919050565b600060208201905081810360008301526109ab81610832565b9050919050565b600060208201905081810360008301526109cb81610872565b9050919050565b60006020820190506109e760008301846108b2565b92915050565b6000819050602082019050919050565b600081519050919050565b6000602082019050919050565b600082825260208201905092915050565b600082825260208201905092915050565b6000610a4282610a49565b9050919050565b600073ffffffffffffffffffffffffffffffffffffffff82169050919050565b6000819050919050565b6000819050919050565b6000610a8882610a69565b9150610a9383610a69565b925082610aa357610aa2610aae565b5b828206905092915050565b7f4e487b7100000000000000000000000000000000000000000000000000000000600052601260045260246000fd5b610ae681610a69565b8114610af157600080fd5b5056fea2646970667358221220afd383760b0233f749132ae39b6b89be38da2a302001e476d645dfb1edb3138264736f6c63430008000033",
  "immutableReferences": {},
  "source": "// SPDX-License-Identifier: UNLICENSED\r\npragma solidity >=0.8.0 <0.9.0;\r\ncontract Lottery {\r\n  address payable[] public players ;\r\n  address manager ;\r\n  address payable public winner ;\r\n  constructor() {\r\n    manager = msg.sender ;\r\n }\r\n\r\n receive() external payable {\r\n require(msg.value == 1 ether , \" Please pay 1 ether only \" ) ;\r\n players.push(payable(msg.sender));\r\n}\r\n \r\nfunction getBalance( ) public view returns ( uint ) {\r\n require(manager == msg.sender,\"You are not the Manager\");\r\n return address(this).balance ;\r\n}\r\n    \r\nfunction random() internal view returns ( uint ) {\r\n return uint( keccak256( abi.encodePacked( block.difficulty , block.timestamp , players.length ) ) ) ;\r\n}\r\n\r\nfunction pickWinner() public {\r\n require( msg.sender == manager , \" You are not the manager \" );\r\n  require( players.length>=3 , \" Players are less than 3 \" );\r\n\r\n  uint r = random();\r\n  uint index = r%players.length;\r\n  winner=players[index];\r\n  winner.transfer(getBalance());\r\n  players = new address payable[](0);\r\n\r\n}\r\n\r\nfunction allPlayers() public view returns(address payable[] memory) {\r\n    return players;\r\n}\r\n}",
  "sourcePath": "E:\\blockchain\\lottery dapp\\web3lab\\contracts\\Lottery.sol",
  "compiler": {
    "name": "solc",
    "version": "0.8.0+commit.c7dfd78e.Emscripten.clang"
  },
  "schemaVersion": "3.4.10",
  "updatedAt": "2022-10-05T23:09:49.096Z",
  "networkType": "ethereum",
  "devdoc": {
    "kind": "dev",
    "methods": {},
    "version": 1
  },
  "userdoc": {
    "kind": "user",
    "methods": {},
    "version": 1
  }
}